:10112B00456E68616E63656420525341206F6E207B
:10113B003830353220496E697469616C697A65643F
:10114B000D0A0043686F6F7365206D6F64653A20FD
:10115B002865296E6372797074206F722028642958
:10116B006563727970743A20000D0A00456E7465E0
:10117B007220706C61696E746578743A2000456EEC
:10118B0074657220636970686572746578743A204F
:10119B0000496E76616C6964206D6F64652E0D0A73
:1011AB0000456E746572207072696D6520703A200F
:1011BB0000202D3E2070206973207072696D652EA2
:1011CB000D0A00202D3E2070206973206E6F742055
:1011DB007072696D652E2054727920616761696E3A
:1011EB002E0D0A00456E746572207072696D652054
:1011FB00713A2000202D3E20712069732070726996
:10120B006D652E0D0A00202D3E2071206973206E16
:10121B006F74207072696D652E205472792061672E
:10122B0061696E2E0D0A006D6F64756C7573203DD0
:10123B002025750D0A00706869203D2025750D0A63
:10124B000065203D2025750D0A0064203D20257585
:10125B000D0A00436970686572746578743A2025CD
:10126B00750D0A004465637279707465642074654A
:09127B0078743A2025750D0A0073
:100B5C001217017BFF7A11792B020E167BFF7A118B
:100B6C00794E1216901217218F4E1217197BFF7A9D
:100B7C00117974121690E54EB465087BFF7A1179E1
:100B8C0077800BE54EB4640B7BFF7A1179891216D2
:100B9C009080097BFF7A11799C020E16E4F50EF514
:100BAC000F742E250FF8E4F6050FE50F7002050EF5
:100BBC006420450E70EBE4F50EF50F121721AE0F05
:100BCC00742E2EF8A607742E2EF8E6FF640D60190D
:100BDC00EF640A6014121719050FE50F7002050E69
:100BEC00C3941FE50E940040D27BFF7A11797412E6
:100BFC0016907B007A00792E1213968E228F237B0F
:100C0C00FF7A1179AC121690E4F50EF50F742E25BF
:100C1C000FF8E4F6050FE50F7002050E6420450E83
:100C2C0070EBE4F50EF50F121721AE0F742E2EF8A3
:100C3C00A607742E2EF8E6FF640D6019EF640A60A7
:100C4C0014121719050FE50F7002050EC3941FE55A
:100C5C000E940040D27B007A00792E1213968E28C7
:100C6C008F2912158AEF60097BFF7A1179BC020D6E
:100C7C00027BFF7A1179CE12169080837BFF7A115A
:100C8C0079EF121690E4F50EF50F742E250FF8E49B
:100C9C00F6050FE50F7002050E6420450E70EBE4AF
:100CAC00F50EF50F121721AE0F742E2EF8A6077441
:100CBC002E2EF8E6FF640D6019EF640A601412170B
:100CCC0019050FE50F7002050EC3941FE50E940075
:100CDC0040D27B007A00792E1213968E2A8F2B121B
:100CEC00158AEF600B7BFF7A1179FF121690800B3F
:100CFC007BFF7A1279111216908081AC2AAD2BAE43
:100D0C0028AF29120E848E088F097552FF75531265
:100D1C007554328508558509567B007A00792E1258
:100D2C00085C7B007A00792E121690E52B24FFFDCF
:100D3C00E52A34FFFCE52924FFFFE52834FFFE12E9
:100D4C000E848E2C8F2D7552FF7553127554418560
:100D5C002C55852D567B007A00792E12085C7B0071
:100D6C007A00792E12169075520075530075540A3C
:100D7C0075550075560075572C7B007A00790C124E
:100D8C0014EB7552FF75531275544C850C55850D2B
:100D9C00567B007A00792E12085C7B007A00792E43
:100DAC001216907552FF755312755455850A558558
:100DBC000B567B007A00792E12085C7B007A007946
:100DCC002E121690E54E64657046AE22AF23FCFDE4
:100DDC00850C59850D5A85085B85095C1212848E29
:100DEC00248F257552FF75531275545E85245585D5
:100DFC0025567B007A00792E12085C7B007A0079EC
:100E0C002E1216907BFF7A117974121690020B68D1
:100E1C00E54E64646003020B68AE22AF23FCFD85D3
:100E2C000A59850B5A85085B85095C1212848E263B
:100E3C008F277552FF75531275546F85265585276C
:100E4C00567B007A00792E12085C7B007A00792E92
:0F0E5C001216907BFF7A117974121690020B68B0
:0C170100759850438920758DFDD28E2212
:081719008F993099FDC299225D
:081721003098FDC298AF992237
:101690008B588A59895AAB58AA59A95A120E6B60AD
:1016A00013055AE55A7002055914F9120E6BFF1210
:0516B000171980E22281
:1016B500652063616E27742062652063616C6375C4
:0816C5006C617465640D0A00FC
:081284008F588E578D568C55D2
:10128C00E4756001F55FF55EF55DC006C007AE5B09
:10129C00AF5CAB07AA068077D3E55A9400E5599466
:1012AC00005003021337E55A30E039AF60AE5FAD42
:1012BC005EAC5DAB58AA57A956A855120F6DC00667
:1012CC00C007AE5BAF5CAB07AA06E4F9F8D007D059
:1012DC0006120FF8AC00AD01AE02AF038F608E5F4B
:1012EC008D5E8C5DE559C313F559E55A13F55AAF6C
:1012FC0058AE57AD56AC55A804A905AA06AB0712B3
:10130C000F6DC006C007AE5BAF5CAB07AA06E4F975
:10131C00F8D007D006120FF8AC00AD01AE02AF0347
:10132C008F588E578D568C550212A4AC5DEC3350F1
:10133C001BE4FCFDE560255CF560E55F355BF55F66
:10134C00ED355EF55EEC355DF55D80DFAE5BAF5C7B
:10135C00E4FCFDAB60AA5FA95EA85DC312108A40D5
:10136C0020AE5BAF5CAB07AA06E5609BF560E55F62
:10137C009AF55FE55E9400F55EE55D9400F55D80A1
:09138C00CBAF60AE5FAD5EAC5D5D
:011395002235
:0416E000ED4C600D60
:0B16E4008C588D59120E96AE58AF596D
:0316EF0080EF2267
:081444008E588F598C5A8D5B04
:10144C00AB5BAA5AE4F560F561900001E55B6401C1
:10145C00455A7003FEFF22D3E5599401E5589400D8
:10146C00404EAC5AAD5BAE58AF59120E968E5E8F95
:10147C005F855A5C855B5DAC5AAD5BAE58AF59125B
:10148C000E968C5A8D5B855C58855D5985605C85A4
:10149C00615DAC60AD61AE5EAF5F120E84C3E58280
:1014AC009FF561E5839EF560855C83855D8280A7F1
:1014BC00C3E58364809480500CEB2582F582EA3579
:1014CC0083F58380EBC3E5829BE5839A400CE58230
:0E14DC009BF582E5839AF58380EBAE83AF82A9
:0114EA0022DF
:04158A008E4F8F50A1
:10158E00D3E5509401E54F940050037F0022D3E53C
:10159E00509403E54F940050037F0122E55030E054
:1015AE000EAE4FFF7C007D03120E96ED4C70037F46
:0715BE000022E4F551F55293
:1015C50012161CE55024FCFDE54F34FFFC120E9667
:1015D500ED2402F554E43CF553FEAF54E4FCFDE57F
:1015E5005024FFF55AE54F34FFF559854F5B85507B
:1015F5005C121284E47B01FAF9F8C312108A6003C5
:031605007F002241
:101608000552E55270020551C39405E55194004016
:03161800AC7F01A3
:01161B0022AC
:1014EB008B4F8A508951E475F003120F4EAB4FAA04
:1014FB0050A951120EEBFFAEF0AB55AA56A95712DD
:10150B000EEBFDACF01216E0EF64014E6025AB550F
:10151B00AA56A957120EEBFFAEF0AB4FAA50A9512A
:10152B00120EEBC39FE5F09E5009E475F001120F0C
:10153B001680BAAB55AA56A957120EEBFFAEF0ABFD
:10154B004FAA50A951120EEBC39FE5F09E40097BA9
:10155B00FF7A1679B5121690AB4FAA50A951120EFD
:10156B00EBFFAEF0AB55AA56A957120EEBFDACF044
:0F157B00121444AB52AA53A954EE8FF0020F4E34
:0300000002170DD7
:0C170D00787FE4F6D8FD758162020B5C69
:100E6B00BB010689828A83E0225002E722BBFE0285
:090E7B00E32289828A83E49322B8
:100E8400EF8DF0A4A8F0CF8CF0A428CE8DF0A42E82
:020E9400FE223C
:100E9600BC000BBE0029EF8DF084FFADF022E4CC40
:100EA600F875F008EF2FFFEE33FEEC33FCEE9DEC09
:100EB600984005FCEE9DFE0FD5F0E9E4CEFD22ED4F
:100EC600F8F5F0EE8420D21CFEADF075F008EF2F99
:100ED600FFED33FD4007985006D5F0F222C398FD8A
:050EE6000FD5F0EA2227
:100EEB00BB010A89828A83E0F5F0A3E022500687D2
:100EFB00F009E71922BBFE07E3F5F009E319228994
:0B0F0B00828A83E493F5F074019322C6
:100F1600BB010789828A830210DF500B09C5F027BF
:100F2600F7C5F01937F722BBFE0D09F8E325F0F3F4
:100F3600C5F019E338F322F889828A837401932570
:080F4600F0C5F0F8E493382235
:100F4E00BB010A89828A83F0E5F0A3F0225006F7EE
:0F0F5E0009A7F01922BBFE06F3E5F009F31922EB
:100F6D00E88FF0A4CC8BF0A42CFCE98EF0A42CFC23
:100F7D008AF0EDA42CFCEA8EF0A4CDA8F08BF0A4A1
:100F8D002DCC3825F0FDE98FF0A42CCD35F0FCEB00
:100F9D008EF0A4FEA9F0EB8FF0A4CFC5F02ECD39C5
:0F0FAD00FEE43CFCEAA42DCE35F0FDE43CFC2232
:100FBC0075F008758200EF2FFFEE33FECD33CDCCEC
:100FCC0033CCC58233C5829BED9AEC99E58298406F
:100FDC000CF582EE9BFEED9AFDEC99FC0FD5F0D64C
:100FEC00E4CEFBE4CDFAE4CCF9A88222B800C1B976
:100FFC000059BA002DEC8BF084CFCECDFCE5F0CBB4
:10100C00F97818EF2FFFEE33FEED33FDEC33FCEBEC
:10101C0033FB10D703994004EB99FB0FD8E5E4F9A7
:10102C00FA227818EF2FFFEE33FEED33FDEC33FC94
:10103C00C933C910D7059BE99A4007EC9BFCE99A88
:10104C00F90FD8E0E4C9FAE4CCFB2275F010EF2FCD
:10105C00FFEE33FEED33FDCC33CCC833C810D707CD
:10106C009BEC9AE899400AED9BFDEC9AFCE899F808
:0E107C000FD5F0DAE4CDFBE4CCFAE4C8F9229B
:10108A00EB9FF5F0EA9E42F0E99D42F0EC6480C8DD
:06109A0064809845F0227D
:10080000E55E2452F8E6055E22784F300702785202
:10081000E475F0011210F5020E6B2000EB7F2ED272
:10082000008018EF540F2490D43440D4FF30040BD0
:10083000EF24BFB41A0050032461FFE55F60021586
:100840005F0562E5627002056130070D784FE4755F
:10085000F0011210F5EF0210CD0216697403D207F1
:100860008003E4C207F55E8B4F8A508951E4F55F3F
:10087000F561F562E55F60077F2012083B80F57542
:1008800060FFC201C200C202C203C205C206C208A2
:10089000120809FF700D3007057F0012084CAF6287
:1008A000AE6122B4255FC2D5C204120809FF24D06C
:1008B000B40A00501A75F00A785F30D50508B6FF03
:1008C0000106C6A426F620D5047002D20380D924DE
:1008D000CFB41A00EF5004C2E5D204020A4CD20190
:1008E00080C6D20080C0D20280BCD2D580BAD205E8
:1008F00080B47F2012083B2002077401B55F0040DE
:10090000F1120800FF12083B020874D208D20680D8
:1009100095120800FB120800FA120800F94A4B7001
:1009200006791D7A0B7BFF20022EE55F602A7E0090
:100930008E827583001210A060060EEE656070F066
:10094000C2D5EBC0E0EAC0E0E9C0E0EE120A93D005
:10095000E0F9D0E0FAD0E0FB120E6BFF60AAEBC02A
:10096000E0EAC0E0E9C0E012083BD0E02401F9D0A1
:10097000E03400FAD0E0FBE5600460DCD560D980AB
:10098000877BFF7A0A798FD202809C791080027966
:1009900008C206C2088008D2D5790A8004790AC242
:1009A000D5E560047002F560E4FAFDFEFF12080070
:1009B000FC7B08200113120800FD7B1030000A1296
:1009C0000800FE120800FF7B20EC3382D592D55040
:1009D00013C3E43000069FFFE49EFEE42001039D64
:1009E000FDE49CFCE4CBF8C201EC700CCFCECDCC86
:1009F000E824F8F870F38017C3EF33FFEE33FEED11
:100A000033FDEC33FCEB33FB994002FB0FD8E9EBF1
:100A1000300105F8D0E0C448B201C0E00AEC4D4E08
:100A20004F78207B0070C2EAB5600040BCC0E01285
:100A30000A95D0F0D0E0200104C4C0E0C4B201C0E7
:100A4000F0120824D0F0D5F0EB0208741211050959
:100A50001153098B5808E24C08DE42098F4F099761
:0F0A60004409974908F743099D550981460981C3
:100A6F00450981470B3D5008E62D08EA2E090D2B4D
:100A7F0008EE23090B200B262A08A64800000905BB
:100A8F003F3F3F00790AA2D5200314300509B91062
:100A9F00020404B9080104A2D52006025001042063
:100AAF0002689202B55F005034C0E07F2030031916
:100ABF007F30A20272067205500F120AECC202C2F8
:100ACF0006C205C2087F30800F300503E9C0E0126F
:100ADF00083B300503D0E0F9D0E0B55FCC30051707
:100AEF007F30B9100C12083B7F583004077F788095
:100AFF0003B9080312083B3002057F2D02083B7F24
:100B0F00202008F87F2B2006F322920280CF286E38
:100B1F00756C6C2900D2011208003001F8C20178FF
:100B2F005F30D50108F60208A62D50434958120828
:100B3F00002403B405004001E4900B389312082CF5
:0D0B4F00743A12082CD203755F0402098B62
:10161C00AC10AD11AE12AF137810EC4D4E4F7004F0
:10162C007CA57DA5C3EC13FCED13FDEE13FEEF13AF
:10163C00FF5010EC64CCFCED644CFDEE644EFEEF00
:10164C0064CEFFD8DF8C108D118E128F13EE547F69
:0D165C00FE228E108F1174A5F512F51322D9
:101396008B4F8A508951AB4FAA50A951120E6BFF41
:1013A6001216CD500D74012551F551E43550F55006
:1013B60080E4D200AB4FAA50A951120E6BFF642BEA
:1013C6006004EFB42D1BAB4F0551E551AA507002D6
:1013D600055014F9120E6B642D6003D38001C3927D
:1013E60000E4F552F553AB4FAA50A951120E6BFF0C
:1013F6001216F25036AB4FAA50A951120E6BFF339C
:1014060095E0FEEF24D0FBEE34FFFAAE52AF537CEC
:10141600007D0A120E84EF2BF553EE3AF552740155
:101426002551F551E43550F55080BB300006AE52DB
:0E143600AF538009C3E49553FFE49552FE22A4
:1010A000BB010CE58229F582E5833AF583E0225005
:1010B00006E92582F8E622BBFE06E92582F8E2224F
:0D10C000E58229F582E5833AF583E4932269
:1010CD00BB010689828A83F0225002F722BBFE0102
:0210DD00F322FC
:1010DF00C5F0F8A3E028F0C5F0F8E582158270029C
:0610EF001583E038F02239
:1010F500FAE6FB0808E6F925F0F618E6CA3AF622FC
:10110500D083D082F8E4937012740193700DA3A379
:1011150093F8740193F5828883E47374029368608D
:06112500EFA3A3A380DF8D
:10166900EFB40A07740D121674740A309811A89908
:10167900B8130CC2983098FDA899C298B811F630E1
:0716890099FDC299F59922B9
:0F16F200EFC394304007EF943A50028001C322B7
:1016CD00EFC394094005EF940E4003BF2003D38070
:0316DD0001C32224
:00000001FF
