:100D0500E58954F04402F589758CA4758AA475A803
:040D150082D28C22D8
:03000B00020D7073
:030D7000B2A732F5
:100CEE0075B0FFE4F590C2A0C2A1C2A2C2A3C2A475
:070CFE00D2A5C2A6C2A72285
:060B95008B1C8A1D891E65
:100B9B00E4F51FAC02AD01ED4C6045EFC39407507B
:100BAB003AEF1392A1EFC3131392A2EF1313543F17
:100BBB001392A3D2A0D2A6120D69C2A0C2A6120D87
:100BCB006920A5FD30A5FDD2A4120D69AB1CAA1D91
:100BDB00A91EE5B0120846C2A48008751F01800348
:050BEB00751F02AF1FA1
:010BF00022E2
:060AC3008B178A18891947
:100AC900E4F51AF51B9000071209ADE94A6050E4F4
:100AD900F51BAB17AA18A919900003120819FFE50D
:100AE9001BC39F502912098D851B8275830012082B
:100AF90019FFAB17AA18A9199000041209ADE51B33
:100B09007C0029F9EC3AFA120B95051B80C4AB1746
:100B1900AA18A9199000071209AD1209DD800375F9
:040B29001A02AF1AE3
:010B2D0022A5
:060D6900E4FF0FBF7FFC58
:010D6F002261
:080D610074656D70203A20005A
:100D2D00020800010A0D0000080200000BFF0B2E47
:100D1900120C41120D05120CEE7B007A00790D12AE
:040D29000AC380F584
:100B2E00C286D287AB11AA12A913120800FF7E004B
:100B3E007C137D881209E3E4FB7A01F9F81208FBB5
:100B4E008F0A7BFF7A0D7961120C99AF0A7E001223
:100B5E000BF1120D3EC287D286AB11AA12A91390C9
:100B6E000001120819FF7E007C137D881209E3E450
:100B7E00FB7A01F9F81208FB8F0A850A90120D3ED6
:070B8E00AF0A7E00020BF12B
:0E0D3E00E4FFFE0FBF00010EBE04F8BFFBF580
:010D4C002284
:0A0D4D008F90C280120C71C2812247
:0A0D57008F90D280120C71C281222D
:100C41007F38120D4D7F0A7E00120C797F0F120D35
:100C51004D7F0A7E00120C797F01120D4D7F0A7EB5
:100C610000120C797F80120D4D7F0A7E00020C79F3
:060C99008B178A1889196F
:100C9F00E4F51AAB17AA18A919851A8275830012E1
:0C0CAF000819FF6007120D57051A80E7B6
:010CBB002216
:040BF1008E178F18B4
:100BF500120CBC8F19D3E51964809480403DE5192A
:100C050014FF120CD6AC17AD18CFCDCFCECCCE126B
:100C1500086AEF2430FF120D57AE17AF18C006C093
:100C250007E51914FF120CD6AC06AD07D007D006A0
:0B0C350012086A8C178D18151980BA80
:010C40002291
:080C7100C282D2817F017E00E6
:100C7900E4FDFCC3ED9FEC9E5015E4FBFA0BBB00B1
:0F0C8900010ABA04F8BBFBF50DBD00010C80E4B5
:010C98002239
:100CBC00E4FBEF4E70037F0122EF4E600A7C007D57
:090CCC000A12086A0B80F2AF0362
:010CD50022FC
:020CD600AB076A
:100CD8007F017E00E4FAEAC39B500A7C007D0A1279
:050CE80008580A80F12C
:010CED0022E4
:03000000020A37BA
:0C0A3700787FE4F6D8FD75811F020A7E6E
:10080000BB010689828A83E0225002E722BBFE02F6
:09081000E32289828A83E4932229
:10081900BB010CE58229F582E5833AF583E0225094
:1008290006E92582F8E622BBFE06E92582F8E222DE
:0D083900E58229F582E5833AF583E49322F8
:10084600BB010689828A83F0225002F722BBFE0191
:02085600F3228B
:10085800EF8DF0A4A8F0CF8CF0A428CE8DF0A42EB4
:02086800FE226E
:10086A00BC000BBE0029EF8DF084FFADF022E4CC72
:10087A00F875F008EF2FFFEE33FEEC33FCEE9DEC3B
:10088A00984005FCEE9DFE0FD5F0E9E4CEFD22ED81
:10089A00F8F5F0EE8420D21CFEADF075F008EF2FCB
:1008AA00FFED33FD4007985006D5F0F222C398FDBC
:0508BA000FD5F0EA2259
:1008BF0075F008758200EF2FFFEE33FECD33CDCCF0
:1008CF0033CCC58233C5829BED9AEC99E582984073
:1008DF000CF582EE9BFEED9AFDEC99FC0FD5F0D650
:1008EF00E4CEFBE4CDFAE4CCF9A88222B800C1B97A
:1008FF000059BA002DEC8BF084CFCECDFCE5F0CBB8
:10090F00F97818EF2FFFEE33FEED33FDEC33FCEBF0
:10091F0033FB10D703994004EB99FB0FD8E5E4F9AB
:10092F00FA227818EF2FFFEE33FEED33FDEC33FC98
:10093F00C933C910D7059BE99A4007EC9BFCE99A8C
:10094F00F90FD8E0E4C9FAE4CCFB2275F010EF2FD1
:10095F00FFEE33FEED33FDCC33CCC833C810D707D1
:10096F009BEC9AE899400AED9BFDEC9AFCE899F80C
:0E097F000FD5F0DAE4CDFBE4CCFAE4C8F9229F
:10098D00BB010789828A83020A195005E9F8020A18
:10099D0010BBFE05E9F8020A2289828A83020A2B1E
:1009AD00BB010DE58229F582E5833AF583020A192B
:1009BD005007E92582F8020A10BBFE07E92582F8E7
:1009CD00020A22E58229F582E5833AF583020A2B94
:0609DD008A838982E473A5
:1009E300EC8EF0A4CCC5F0CCCDF8EFA4CEC5F02DA1
:1009F300FDE43CFCE8A42EC8C5F03DFDE43CFCEF5F
:0D0A0300A4FFE5F028FEE43DFDE43CFC22EC
:100A4300020D19E493A3F8E493A34003F68001F2A3
:100A530008DFF48029E493A3F85407240CC8C333B4
:100A6300C4540F4420C8834004F456800146F6DF83
:100A7300E4800B0102040810204080900D2DE47ED9
:100A8300019360BCA3FF543F30E509541FFEE49378
:100A9300A360010ECF54C025E060A840B8E493A33F
:100AA300FAE493A3F8E493A3C8C582C8CAC583CA6A
:100AB300F0A3C8C582C8CAC583CADFE9DEE780BE22
:010D3D0000B5
:090A1000E6FB08E6FA08E6F9220B
:090A1900E0FBA3E0FAA3E0F922DE
:090A2200E2FB08E2FA08E2F92205
:0C0A2B00E493FB740193FA740293F92227
:00000001FF
