:03000000020800F3
:0C080000787FE4F6D8FD758109020847F6
:0F08C50080B0DAF5FFDAB0804F250A000A254F20
:0608DC0001080001090FF4
:03000B0002088C5C
:10088C00C0E0C083C082C0D0E5089008C593F5A035
:10089C000508E508C395095003750800D0D0D0822F
:0508AC00D083D0E03212
:0808D4001208E31208B180FED6
:0408E300E4F5A02276
:1008B100E58954F04402F589758CA4758CA4D28C19
:0408C10075A8822272
:10080C000208D4E493A3F8E493A34003F68001F226
:10081C0008DFF48029E493A3F85407240CC8C333ED
:10082C00C4540F4420C8834004F456800146F6DFBC
:10083C00E4800B01020408102040809008DCE47E68
:10084C00019360BCA3FF543F30E509541FFEE493B1
:10085C00A360010ECF54C025E060A840B8E493A378
:10086C00FAE493A3F8E493A3C8C582C8CAC583CAA3
:10087C00F0A3C8C582C8CAC583CADFE9DEE780BE5B
:0108E2000015
:00000001FF
